:020000040800F2
:1020000000500020F53400086934000871340008DD
:1020100073340008753400087734000800000000AD
:1020200000000000000000000000000079340008FB
:102030007B340008000000007D3400087F34000875
:102040003D3500083D3500083D3500083D350008A8
:102050003D3500083D3500083D3500083D35000898
:102060003D3500083D3500083D3500083D35000888
:102070003D3500083D3500083D3500083D35000878
:102080003D3500083D3500083D350008893400081D
:10209000993400083D3500083D3500083D350008FD
:1020A0003D3500083D3500083D3500083D35000848
:1020B0003D3500083D3500083D3500083D35000838
:1020C0003D3500083D3500083D3500083D35000828
:1020D0003D3500083D3500083D3500083D35000818
:1020E0003D3500083D3500083D3500080000000082
:1020F00000000000000000000000000000000000E0
:0C21000000000000000000005FF808F183
:10210C0010B5054C237833B9044B13B10448AFF325
:10211C0000800123237010BD0C0000200000000083
:10212C008835000808B5034B1BB103490348AFF3CE
:10213C00008008BD00000000100000208835000859
:10214C0010B504460E4B18784FF47A73B3FBF0F3CA
:10215C000C4A1068B0FBF3F000F0D6FB68B90F2CFA
:10216C0001D901200AE0002221464FF0FF3000F097
:10217C008BFB034B5C60002000E0012010BD00BF16
:10218C00000000200800002008B5074A136843F03F
:10219C0010031360032000F065FB0020FFF7D0FF55
:1021AC0001F0E4F8002008BD00200240034A116849
:1021BC00034B1B780B441360704700BF28000020B2
:1021CC0000000020014B1868704700BF2800002059
:1021DC0038B50446FFF7F6FF0546B4F1FF3F02D0D1
:1021EC00044B1B781C44FFF7EDFF401BA042FAD3B5
:1021FC0038BD00BF00000020002800F0A18038B5D9
:10220C00044690F82030D3B12268136823F00203FF
:10221C001360FFF7D7FF054623685A6812F0020FC8
:10222C0010D0FFF7CFFF401B0A28F5D9636A43F49F
:10223C0000336362052384F82030012038BD01F09F
:10224C00B7F8E1E71A6842F001021A60FFF7BAFF2B
:10225C00054623685A6812F0010F0DD1FFF7B2FF43
:10226C00401B0A28F5D9636A43F4003363620523E3
:10227C0084F820300120E1E7227E012A3DD01A6843
:10228C0022F080021A60637E012B3BD02268136817
:10229C0023F040031360A37E012B39D0226813680E
:1022AC0023F020031360E37E012B37D022681368E0
:1022BC0043F010031360237F012B35D02268136881
:1022CC0023F008031360637F012B33D0226813685B
:1022DC0023F004031360A368E268134322691343D9
:1022EC00626913436268013A21681343CB61002091
:1022FC006062012384F82030A0E71A6842F0800263
:10230C001A60C0E72268136843F040031360C2E709
:10231C002268136843F020031360C4E72268136833
:10232C0023F010031360C6E72268136843F0080318
:10233C001360C8E72268136843F004031360CAE70C
:10234C0001207047036890F82020013AD2B2012A8C
:10235C0005D9436A43F4802343620120704770B46B
:10236C00D3F8002242F00102C3F800224A6902F0BD
:10237C001F02012000FA02F2D3F81C42D0430440A1
:10238C00C3F81C42CC69ACB9D3F80C420440C3F876
:10239C000C42CE688D884C6945EA0645483443F8B2
:1023AC0034508E680D884C6945EA0645483403EB79
:1023BC00C4046560CC69012C19D08C6974BBD3F84A
:1023CC0004420440C3F804420C696CBBD3F81442B9
:1023DC002040C3F81402096A01292BD0D3F800223B
:1023EC0022F00102C3F80022002070BC7047D3F821
:1023FC000C421443C3F80C420E688D884C6945EAB4
:10240C000645483443F834508E688D894C6945EA4A
:10241C000645483403EBC4046560CEE7D3F80442A8
:10242C001443C3F80442CFE7D3F814021043C3F8A3
:10243C001402D0E7D3F81C120A43C3F81C22CDE7D0
:10244C0038B590F82030DBB2012B05D0436A43F449
:10245C0000234362012038BD0446022380F820305B
:10246C000268136823F001031360FFF7ABFE054607
:10247C0023685B6813F0010F0DD0FFF7A3FE401B20
:10248C000A28F5D9636A43F400336362052384F8A0
:10249C0020300120DFE700206062DCE730B490F8E8
:1024AC002040013CE4B2012C06D9436A43F480235A
:1024BC004362012030BC704700296FD10468E46886
:1024CC0014F0030F64D0056801F11B0424012C598E
:1024DC0004F004049460002C6BD1056801F11B041A
:1024EC0024012C59640D1460056801F11B042401AE
:1024FC002D59C5F34005D560056825446D6805F078
:10250C000F051561056825446D68C5F307259561B0
:10251C0005682C446468240C546104680A01144452
:10252C00D4F8B8411C7004681444D4F8B841C4F30E
:10253C0007245C7004681444D4F8B841C4F307440D
:10254C009C7004681444D4F8B841240EDC70046800
:10255C001444D4F8BC411C7104681444D4F8BC4134
:10256C00C4F307245C7104681444D4F8BC41C4F36C
:10257C0007449C7104682244D2F8BC21120EDA7113
:10258C00F9B90268D36843F02003D360002091E7C7
:10259C00436A43F40013436201208BE70468246907
:1025AC0014F0030F8FD1436A43F4001343620120EC
:1025BC0080E7056801F11B0424012C59E4085460E0
:1025CC0092E70268136943F020031361002071E75E
:1025DC0090F82030013BDBB2012B05D9436A43F460
:1025EC00802343620120704702685369194351618B
:1025FC0000207047704770477047704770477047AE
:10260C00704770477047704770472DE9F84F054683
:10261C0003685C695F689E68D3F80C90D3F81080EF
:10262C00D3F818A014F0010F5AD016F0010F17D0E0
:10263C0001229A6016F0020F08D116F0040F30D167
:10264C0016F0080F07D04FF4805B0BE000F0C6FDCE
:10265C004FF0000B06E0FFF7CFFF4FF0000B01E04F
:10266C004FF0000B16F4807F0BD02B684FF4807268
:10267C009A6016F4007F17D116F4806F18D04BF4C3
:10268C00005B16F4803F2DD02B684FF480329A609B
:10269C0016F4003F16D116F4802F17D04BF4004BD4
:1026AC0020E04FF4006BDDE72846FFF7A3FFE8E7D7
:1026BC0016F4006F02D04BF4804BE2E72846FFF78C
:1026CC009CFFDEE72846FFF796FF0BE016F4002F81
:1026DC0002D04BF4803B05E02846FFF78FFF01E06A
:1026EC004FF0000B14F0080F07D019F0100F04D0A6
:1026FC004BF4007B2B681022DA6014F0040F02D02C
:10270C0019F0080F60D114F0020F04D02B68DB68AD
:10271C0013F0030F5FD114F0400F07D018F0100F17
:10272C0004D04BF4806B2B6810221A6114F0200F2C
:10273C0002D018F0080F52D114F0100F04D02B68EF
:10274C001B6913F0030F51D114F4003F02D017F0A2
:10275C00100F4FD114F4803F02D017F0080F50D156
:10276C0014F4004F67D017F0040F61D014F4807F7D
:10277C0004D01AF0010F01D04BF0010B14F4007FC0
:10278C0004D01AF0020F01D04BF0020B14F4806F3E
:10279C0004D01AF0040F01D04BF0040B14F4006FAA
:1027AC0046D01AF0700A43D0BAF1300F48D02FD966
:1027BC00BAF1500F47D0BAF1600F47D0BAF1400FC1
:1027CC0031D14BF0400B2EE02B680822DA60284602
:1027DC00FFF715FF97E7284600F0B2FD9BE72B6843
:1027EC0008221A612846FFF70CFFA5E72846FFF7D9
:1027FC0007FFA9E72B6810225A602846FFF702FF53
:10280C00A8E72B6808225A602846FFF7FCFEA7E7CA
:10281C00BAF1100F05D0BAF1200F04D14BF0100B08
:10282C0001E04BF0080B2A68936923F07003936165
:10283C002B6804225A60BBF1000F0AD1BDE8F88F57
:10284C004BF0200BEFE74BF0800BECE74BF4807B6D
:10285C00E9E76B6A43EA0B036B622846FFF7D4FE89
:10286C00ECE70000074AD36823F4E0631B041B0C5D
:10287C00000200F4E060184340F0BF6040F4003008
:10288C00D060704700ED00E030B4174BDB68C3F349
:10289C000223C3F10704042C28BF04241D1D062D9C
:1028AC0018D9033B4FF0FF3505FA04F421EA040173
:1028BC00994005FA03F322EA0303194300280BDBC2
:1028CC000901C9B200F1604000F5614080F80013C5
:1028DC0030BC70470023E5E700F00F000901C9B2D6
:1028EC00024B1954F4E700BF00ED00E014ED00E0DA
:1028FC0000F01F02400901239340024A42F82030A5
:10290C00704700BF00E100E00138B0F1807F0AD2CF
:10291C00064B5860064AF02182F82310002098607C
:10292C0007221A6070470120704700BF10E000E0DA
:10293C0000ED00E0F0B482B000263546A1E0002C9A
:10294C0059D0012C00D1CE68FF2B68D88446FF2BC0
:10295C0068D8AC00DCF800200F27A74022EA070259
:10296C0006FA04F42243CCF800204A6812F0805F87
:10297C0000F086805E4A946944F001049461926987
:10298C0002F001020192019AAC08A71C594A52F8B4
:10299C00272005F00307BF004FF00F0C0CFA07FCC3
:1029AC0022EA0C0C544A904242D002F580629042CA
:1029BC007FD002F5806290427DD002F58062904219
:1029CC0034D0042235E04D4FBC4214D00BD94C4FBF
:1029DC00BC4210D007F58037BC420CD0A7F580174D
:1029EC00BC42B1D107E0A7F58017BC4203D007F574
:1029FC008037BC42A8D18C687CB1012C08D04261D4
:102A0C000826A1E7CE6808369EE7CE680C369BE711
:102A1C000261082698E7002696E7042694E700F161
:102A2C00040C94E7A5F10804A40093E7032200E04A
:102A3C000022BA4042EA0C0202342E4F47F82420FE
:102A4C004A6812F4803F38D02E4C22681A43226018
:102A5C004A6812F4003F36D02A4C62681A4362600E
:102A6C004A6812F4801F34D0264CA2681A43A26024
:102A7C004A6812F4001F32D0224CE2681343E36020
:102A8C0001350F2D31D80122AA400B6813409A4210
:102A9C00F6D14C68122CB8D095D8022CB2D07FF657
:102AAC004EAF032CB7D0112C7FF44EAFCE6804364A
:102ABC004AE70122BDE70222BBE7124C226822EA58
:102ACC0003022260C4E70F4C626822EA03026260D0
:102ADC00C6E70C4CA26822EA0302A260C8E7094CC4
:102AEC00E26822EA0303E360CAE702B0F0BC704775
:102AFC0000100240000001400008014000002110BD
:102B0C00000031100004014012B909040161704742
:102B1C0001617047C3685940C160704782B0084B6F
:102B2C001B68084AA2FB03235B0A00FB03F001901D
:102B3C0000BF019B5A1E0192002BF9D102B07047C5
:102B4C0008000020D34D621070B582B004460368B3
:102B5C0013F0010F2CD0AB4B5B6803F00C03042B70
:102B6C001DD0A84B5B6803F00C03082B12D06368D4
:102B7C00B3F5803F41D0002B55D103F1804303F5D1
:102B8C0004331A6822F480321A601A6822F4802204
:102B9C001A6037E09B4B5B6813F4803FE7D0994B8E
:102BAC001B6813F4003F03D06368002B00F0AE8168
:102BBC00236813F0020F76D0924B5B6813F00C0F66
:102BCC005FD0904B5B6803F00C03082B54D0236947
:102BDC00002B00F08A808C4B01221A60FFF7F2FA6E
:102BEC000546884B1B6813F0020F75D1FFF7EAFA04
:102BFC00401B0228F5D903208BE1824A136843F469
:102C0C0080331360636843B3FFF7DCFA05467D4BF2
:102C1C001B6813F4003FCBD1FFF7D4FA401B642898
:102C2C00F5D9032075E1B3F5A02F09D0754B1A68BF
:102C3C0022F480321A601A6822F480221A60E1E7CA
:102C4C0003F18043A3F53C331A6842F480221A60E6
:102C5C001A6842F480321A60D4E7FFF7B3FA0546DB
:102C6C00684B1B6813F4003FA2D0FFF7ABFA401B74
:102C7C006428F5D903204CE1624B5B6813F4803F68
:102C8C00A5D1604B1B6813F0020F04D02369012BF4
:102C9C0001D001203DE15B4A136823F0F803616920
:102CAC0043EAC1031360236813F0080F32D0A36901
:102CBC00002B5BD0554B01221A60FFF783FA0546B7
:102CCC00504B5B6A13F0020F21D1FFF77BFA401BCC
:102CDC000228F5D903201CE14A4A136823F0F803B3
:102CEC00616943EAC1031360DDE7474B00221A60B8
:102CFC00FFF768FA0546434B1B6813F0020FD2D05E
:102D0C00FFF760FA401B0228F5D9032001E10120EE
:102D1C00FFF704FF236813F0040F00F09780394B82
:102D2C00DB6913F0805F33D1364BDA6942F08052A5
:102D3C00DA61DB6903F080530193019B0125344B6D
:102D4C001B6813F4807F25D0E368012B36D0002B51
:102D5C004CD103F1804303F504331A6A22F00102CB
:102D6C001A621A6A22F004021A622CE0274B002223
:102D7C001A60FFF727FA0546224B5B6A13F0020F25
:102D8C00C8D0FFF71FFA401B0228F5D90320C0E07A
:102D9C000025D4E71E4A136843F480731360FFF7D1
:102DAC0011FA06461A4B1B6813F4807FCCD1FFF73F
:102DBC0009FA801B6428F5D90320AAE0114A136A8A
:102DCC0043F001031362E36873B3FFF7FBF90646A4
:102DDC000C4B1B6A13F0020F37D1FFF7F3F9801B72
:102DEC0041F288339842F3D9032092E0052B11D09D
:102DFC00044B1A6A22F001021A621A6A22F00402C7
:102E0C001A62E0E700100240000042428004424295
:102E1C0000700040414B1A6A42F004021A621A6AAE
:102E2C0042F001021A62CEE7FFF7CCF906463B4BA3
:102E3C001B6A13F0020F08D0FFF7C4F9801B41F294
:102E4C0088339842F3D9032063E0E5B9E369002B9A
:102E5C005ED0324A526802F00C02082A5BD0022B78
:102E6C0017D02F4B00221A60FFF7ACF904462B4BFE
:102E7C001B6813F0007F47D0FFF7A4F9001B022852
:102E8C00F5D9032045E0254AD36923F08053D3615B
:102E9C00DCE7234B00221A60FFF794F905461F4B21
:102EAC001B6813F0007F06D0FFF78CF9401B02283B
:102EBC00F5D903202DE0236AB3F5803F1AD01749CA
:102ECC004B6823F47413226A606A024313434B6009
:102EDC00134B01221A60FFF775F904460F4B1B6860
:102EEC0013F0007F0ED1FFF76DF9001B0228F5D906
:102EFC0003200EE0094A536823F40033A1680B4306
:102F0C005360DCE7002004E0002002E0012000E038
:102F1C00002002B070BD0120FBE700BF0010024092
:102F2C0060004242014B01221A6070474C00424241
:102F3C0010B487B0164C94E80F000DF1180C0CE986
:102F4C000F00238AADF80430124B5B6803F00C02BF
:102F5C00082A1AD1C3F38342624412F8102C13F4DA
:102F6C00803F05D10C4800FB02F007B010BC704745
:102F7C00084B5B68C3F34043634413F8143C0748A5
:102F8C0000FB02F0B0FBF3F0EFE70448EDE700BF05
:102F9C00A03500080010024000093D0000127A0024
:102FAC00624B1B6803F007038B420CD25F4A136819
:102FBC0023F007030B431360136803F007038B42E2
:102FCC0001D00120704770B5036813F0020F17D0C1
:102FDC0013F0040F04D0564A536843F4E063536073
:102FEC00036813F0080F04D0514A536843F460533C
:102FFC0053604F4A536823F0F003846823435360B3
:10300C000D460446036813F0010F52D04368012BA0
:10301C0023D0022B28D0464A126812F0020F00F07F
:10302C00828043494A6822F0030213434B60FFF746
:10303C00C9F806466368012B1DD0022B2AD03C4BE5
:10304C005B6813F00C0F34D0FFF7BCF8801B41F217
:10305C0088339842F3D9032064E0354A126812F49D
:10306C00003FDED101205DE0314A126812F0007F92
:10307C00D7D1012056E02E4B5B6803F00C03042BD8
:10308C0017D0FFF79FF8801B41F288339842F2D992
:10309C00032047E0264B5B6803F00C03082B08D099
:1030AC00FFF790F8801B41F288339842F2D9032045
:1030BC0038E01E4B1B6803F00703AB420CD91B4ACC
:1030CC00136823F007032B431360136803F0070303
:1030DC00AB4201D0012025E0236813F0040F06D089
:1030EC00134A536823F4E063E1680B43536023688D
:1030FC0013F0080F07D00E4A536823F4605321696C
:10310C0043EAC1035360FFF713FF094B5B68C3F33A
:10311C000313084AD35CD840074B18600020FFF714
:10312C000FF8002070BD0120FCE700BF002002401A
:10313C0000100240B4350008080000207047000061
:10314C0008B5064B9B6813F0800F00D108BDFFF744
:10315C00F5FF034B80221A70F8E700BF0010024005
:10316C000A10024030B589B00024049405940694EA
:10317C000794184B9A6942F010029A619A6902F00E
:10318C0010020192019A9A6942F020029A619A699E
:10319C0002F020020292029A9A6942F008029A61A5
:1031AC009B6903F008030393039B0B4D01224FF41F
:1031BC0000512846FFF7A8FC4FF400530493012359
:1031CC00059306940223079304A92846FFF7B2FB44
:1031DC0009B030BD001002400010014070470000E3
:1031EC0008B54FF400510348FFF794FC9620FEF706
:1031FC00EFFFF6E70010014008B50D480D4B0360DA
:10320C000323436000238360C3604FF440220261B8
:10321C004FF480124261037643768376C37603774C
:10322C004377FEF7E9FF00B908BDFFF7D9FF00BFF0
:10323C00540000200064004000B591B000230893B6
:10324C0009930B930C9301930293039304930593AB
:10325C00012206924FF4803307930A9202220D92B8
:10326C000E934FF480130F9306A8FFF76DFC98B9DB
:10327C000F23019302230293002303934FF48062E4
:10328C0004920593012101A8FFF78AFE30B9FFF7DC
:10329C0049FE11B05DF804FBFFF7A2FFFFF7A0FF9A
:1032AC0008B5FEF771FFFFF7C7FFFFF75BFFFFF7EE
:1032BC00A3FF1F4900234B618B610122CA6146F2B7
:1032CC00204008604B608B60CB600B610A620E2360
:1032DC004B621848FFF736F808B1FFF781FF154825
:1032EC00FFF7AEF808B1FFF77BFF03211148FFF79A
:1032FC006FF908B1FFF774FF0F4B40F221321A60DF
:10330C00012058600022DA609A60082119611A7550
:10331C000A4B187002225A7003229A700422DA7037
:10332C0005221A7106225A7107229A71D971FEE789
:10333C002C00002054000020900000207C00002075
:10334C0008B5074B074A0021FFF7A8F828B94FF436
:10335C0000510548FFF7DEFB08BDFFF741FF00BF3A
:10336C0088000020A80000200010014082B00E4B05
:10337C009A6942F001029A619A6902F00102009284
:10338C00009ADA6942F08052DA61DB6903F080530B
:10339C000193019B054A536823F0E06343F080637B
:1033AC00536002B0704700BF0010024000000140A3
:1033BC0030B587B0002302930393049305930268FE
:1033CC00234B9A4201D007B030BD03F5D633DA69EE
:1033DC0042F00072DA61DA6902F000720092009A2F
:1033EC009A6942F008029A619B6903F00803019301
:1033FC00019B06AC4FF4807344F8103D154D2146EB
:10340C002846FFF797FA4FF40073029302230393B5
:10341C000323059321462846FFF78CFA0E4A53687E
:10342C0023F4C04343F0E06343F480435360002231
:10343C0011461320FFF728FA1320FFF759FA002240
:10344C0011461420FFF720FA1420FFF751FABAE7BF
:10345C0000640040000C01400000014008B5FFF77B
:10346C006FFE08BDFEE7FEE7FEE7FEE7704770471C
:10347C00704708B5FEF79AFE08BD000008B5024873
:10348C00FFF7C3F808BD00BF5400002008B5024880
:10349C00FFF7BBF808BD00BF540000200E4B1A68A4
:1034AC0042F001021A6059680C4A0A405A601A68C4
:1034BC0022F0847222F480321A601A6822F480227C
:1034CC001A605A6822F4FE025A604FF41F029A6086
:1034DC00034B044A9A607047001002400000FFF84A
:1034EC0000ED00E000200008002103E00B4B5B58CE
:1034FC00435004310A480B4B42189A42F6D30A4AFD
:10350C0002E0002342F8043B084B9A42F9D3FFF740
:10351C00C5FF00F00FF8FFF7C3FE7047D435000865
:10352C00000000200C0000200C000020C400002033
:10353C00FEE7000070B500250C4E0D4CA41BA4102A
:10354C00A54209D100F01AF800250A4E0A4CA41B1A
:10355C00A410A54205D170BD56F825309847013509
:10356C00EEE756F8253098470135F2E7CC350008E0
:10357C00CC350008CC350008D0350008F8B500BFB4
:10358C00F8BC08BC9E467047F8B500BFF8BC08BC38
:04359C009E46704790
:1035A00002030405060708090A0B0C0D0E0F101084
:1035B00001020000000000000000000001020304FE
:0C35C000060708090000000001020304D7
:0435CC0031210008A1
:0435D0000D210008C1
:0C35D400010000001000000000A24A04EA
:04000005080034F5C6
:00000001FF
